{
  "contractName": "Main",
  "abi": [
    {
      "inputs": [],
      "payable": true,
      "stateMutability": "payable",
      "type": "constructor"
    },
    {
      "payable": true,
      "stateMutability": "payable",
      "type": "fallback"
    },
    {
      "constant": false,
      "inputs": [
        {
          "internalType": "string",
          "name": "x",
          "type": "string"
        }
      ],
      "name": "set",
      "outputs": [],
      "payable": false,
      "stateMutability": "nonpayable",
      "type": "function"
    },
    {
      "constant": true,
      "inputs": [],
      "name": "get",
      "outputs": [
        {
          "internalType": "string",
          "name": "",
          "type": "string"
        }
      ],
      "payable": false,
      "stateMutability": "view",
      "type": "function"
    },
    {
      "constant": false,
      "inputs": [
        {
          "internalType": "address payable",
          "name": "recipient",
          "type": "address"
        },
        {
          "internalType": "uint256",
          "name": "pay",
          "type": "uint256"
        }
      ],
      "name": "sendAPayment",
      "outputs": [
        {
          "internalType": "bool",
          "name": "",
          "type": "bool"
        }
      ],
      "payable": false,
      "stateMutability": "nonpayable",
      "type": "function"
    }
  ],
  "bytecode": "0x60806040526040518060600160405280602e815260200161057b602e913960019080519060200190610032929190610078565b50336000806101000a81548173ffffffffffffffffffffffffffffffffffffffff021916908373ffffffffffffffffffffffffffffffffffffffff16021790555061011d565b828054600181600116156101000203166002900490600052602060002090601f016020900481019282601f106100b957805160ff19168380011785556100e7565b828001600101855582156100e7579182015b828111156100e65782518255916020019190600101906100cb565b5b5090506100f491906100f8565b5090565b61011a91905b808211156101165760008160009055506001016100fe565b5090565b90565b61044f8061012c6000396000f3fe6080604052600436106100345760003560e01c80634ed3885e146100365780636d4ce63c146100fe578063e2952e9d1461018e575b005b34801561004257600080fd5b506100fc6004803603602081101561005957600080fd5b810190808035906020019064010000000081111561007657600080fd5b82018360208201111561008857600080fd5b803590602001918460018302840111640100000000831117156100aa57600080fd5b91908080601f016020809104026020016040519081016040528093929190818152602001838380828437600081840152601f19601f820116905080830192505050505050509192919290505050610201565b005b34801561010a57600080fd5b5061011361021b565b6040518080602001828103825283818151815260200191508051906020019080838360005b83811015610153578082015181840152602081019050610138565b50505050905090810190601f1680156101805780820380516001836020036101000a031916815260200191505b509250505060405180910390f35b34801561019a57600080fd5b506101e7600480360360408110156101b157600080fd5b81019080803573ffffffffffffffffffffffffffffffffffffffff169060200190929190803590602001909291905050506102bd565b604051808215151515815260200191505060405180910390f35b8060019080519060200190610217929190610375565b5050565b606060018054600181600116156101000203166002900480601f0160208091040260200160405190810160405280929190818152602001828054600181600116156101000203166002900480156102b35780601f10610288576101008083540402835291602001916102b3565b820191906000526020600020905b81548152906001019060200180831161029657829003601f168201915b5050505050905090565b60008060009054906101000a900473ffffffffffffffffffffffffffffffffffffffff1673ffffffffffffffffffffffffffffffffffffffff163373ffffffffffffffffffffffffffffffffffffffff161461031857600080fd5b81471161032457600080fd5b8273ffffffffffffffffffffffffffffffffffffffff166108fc839081150290604051600060405180830381858888f1935050505015801561036a573d6000803e3d6000fd5b506001905092915050565b828054600181600116156101000203166002900490600052602060002090601f016020900481019282601f106103b657805160ff19168380011785556103e4565b828001600101855582156103e4579182015b828111156103e35782518255916020019190600101906103c8565b5b5090506103f191906103f5565b5090565b61041791905b808211156104135760008160009055506001016103fb565b5090565b9056fea265627a7a723158202e8ee9b3934ded9300805cce2c146f84d42c3502564be01e8f9f36bfd447339f64736f6c63430005100032516d624a574145537143736634524643714559376a6563436173686a387573586979444e664b745a4377777a4762",
  "source": "pragma solidity >=0.4.21 <0.7.0;\r\n\r\ncontract Main {\r\n    \r\n    address initialCreator; \r\n    \r\n    constructor() payable public {\r\n        initialCreator = msg.sender;\r\n    }\r\n    \r\n    string initialDB = \"QmbJWAESqCsf4RFCqEY7jecCashj8usXiyDNfKtZCwwzGb\";\r\n    \r\n    function set(string memory x) public {\r\n      initialDB = x;\r\n  }\r\n\r\n  function get() public view returns (string memory) {\r\n    return initialDB;\r\n  }\r\n \r\n  function () external payable {\r\n\r\n  }\r\n\r\n    function sendAPayment(address payable recipient, uint256 pay) public returns (bool) {\r\n        require (msg.sender == initialCreator);\r\n        require (address(this).balance > pay);\r\n        recipient.transfer(pay);\r\n        return true;\r\n    }\r\n}",
  "sourcePath": "C:\\Users\\marko\\Documents\\GitHub\\Hack-the-6ix\\contracts\\Main.sol",
  "compiler": {
    "name": "solc",
    "version": "0.5.16+commit.9c3226ce.Emscripten.clang"
  },
  "schemaVersion": "3.0.23",
  "updatedAt": "2020-08-23T13:09:23.179Z",
  "networkType": "ethereum",
  "devdoc": {
    "methods": {}
  },
  "userdoc": {
    "methods": {}
  }
}